{
  "contractName": "ReferralTree",
  "abi": [
    {
      "constant": true,
      "inputs": [],
      "name": "founder",
      "outputs": [
        {
          "name": "",
          "type": "address"
        }
      ],
      "payable": false,
      "stateMutability": "view",
      "type": "function"
    },
    {
      "inputs": [
        {
          "name": "_questionLink",
          "type": "string"
        }
      ],
      "payable": true,
      "stateMutability": "payable",
      "type": "constructor"
    },
    {
      "constant": false,
      "inputs": [
        {
          "name": "referralCodeAlsoParentAddr",
          "type": "address"
        }
      ],
      "name": "registerNode",
      "outputs": [],
      "payable": false,
      "stateMutability": "nonpayable",
      "type": "function"
    },
    {
      "constant": false,
      "inputs": [],
      "name": "payIn",
      "outputs": [],
      "payable": true,
      "stateMutability": "payable",
      "type": "function"
    },
    {
      "constant": true,
      "inputs": [],
      "name": "getReward",
      "outputs": [
        {
          "name": "",
          "type": "uint256"
        }
      ],
      "payable": false,
      "stateMutability": "view",
      "type": "function"
    },
    {
      "constant": false,
      "inputs": [
        {
          "name": "attempt",
          "type": "string"
        }
      ],
      "name": "attemptAnswer",
      "outputs": [],
      "payable": false,
      "stateMutability": "nonpayable",
      "type": "function"
    },
    {
      "constant": true,
      "inputs": [
        {
          "name": "index",
          "type": "uint256"
        }
      ],
      "name": "viewAnswerMapAddress",
      "outputs": [
        {
          "name": "",
          "type": "address"
        }
      ],
      "payable": false,
      "stateMutability": "view",
      "type": "function"
    },
    {
      "constant": true,
      "inputs": [
        {
          "name": "index",
          "type": "uint256"
        }
      ],
      "name": "viewAnswerMapAnswer",
      "outputs": [
        {
          "name": "",
          "type": "string"
        }
      ],
      "payable": false,
      "stateMutability": "view",
      "type": "function"
    },
    {
      "constant": true,
      "inputs": [],
      "name": "viewNumTotalNodes",
      "outputs": [
        {
          "name": "",
          "type": "uint256"
        }
      ],
      "payable": false,
      "stateMutability": "view",
      "type": "function"
    },
    {
      "constant": true,
      "inputs": [],
      "name": "getNumNodesPayed",
      "outputs": [
        {
          "name": "",
          "type": "uint256"
        }
      ],
      "payable": false,
      "stateMutability": "view",
      "type": "function"
    },
    {
      "constant": true,
      "inputs": [],
      "name": "getQuestionLink",
      "outputs": [
        {
          "name": "",
          "type": "string"
        }
      ],
      "payable": false,
      "stateMutability": "view",
      "type": "function"
    },
    {
      "constant": true,
      "inputs": [],
      "name": "getNextPayeeAddress",
      "outputs": [
        {
          "name": "",
          "type": "address"
        }
      ],
      "payable": false,
      "stateMutability": "view",
      "type": "function"
    },
    {
      "constant": true,
      "inputs": [],
      "name": "getContractOwner",
      "outputs": [
        {
          "name": "",
          "type": "address"
        }
      ],
      "payable": false,
      "stateMutability": "view",
      "type": "function"
    },
    {
      "constant": true,
      "inputs": [],
      "name": "getNextPayeeIndex",
      "outputs": [
        {
          "name": "",
          "type": "uint256"
        }
      ],
      "payable": false,
      "stateMutability": "view",
      "type": "function"
    },
    {
      "constant": false,
      "inputs": [
        {
          "name": "addr",
          "type": "address"
        }
      ],
      "name": "payOut",
      "outputs": [],
      "payable": false,
      "stateMutability": "nonpayable",
      "type": "function"
    }
  ],
  "bytecode": "0x608060405273ca35b7d915458ef540ade6068dfe2f44e8fa733c6000806101000a81548173ffffffffffffffffffffffffffffffffffffffff021916908373ffffffffffffffffffffffffffffffffffffffff160217905550604051620013b3380380620013b38339810180604052810190808051820192919050505080600190805190602001906200009492919062000278565b5033600260006101000a81548173ffffffffffffffffffffffffffffffffffffffff021916908373ffffffffffffffffffffffffffffffffffffffff160217905550346003819055506000600660003373ffffffffffffffffffffffffffffffffffffffff1673ffffffffffffffffffffffffffffffffffffffff16815260200190815260200160002060006101000a81548173ffffffffffffffffffffffffffffffffffffffff021916908373ffffffffffffffffffffffffffffffffffffffff1602179055506020604051908101604052806000815250600760003373ffffffffffffffffffffffffffffffffffffffff1673ffffffffffffffffffffffffffffffffffffffff1681526020019081526020016000209080519060200190620001c192919062000278565b5060043390806001815401808255809150509060018203906000526020600020016000909192909190916101000a81548173ffffffffffffffffffffffffffffffffffffffff021916908373ffffffffffffffffffffffffffffffffffffffff16021790555050600480549050600860003373ffffffffffffffffffffffffffffffffffffffff1673ffffffffffffffffffffffffffffffffffffffff168152602001908152602001600020819055505062000327565b828054600181600116156101000203166002900490600052602060002090601f016020900481019282601f10620002bb57805160ff1916838001178555620002ec565b82800160010185558215620002ec579182015b82811115620002eb578251825591602001919060010190620002ce565b5b509050620002fb9190620002ff565b5090565b6200032491905b808211156200032057600081600090555060010162000306565b5090565b90565b61107c80620003376000396000f3006080604052600436106100d0576000357c0100000000000000000000000000000000000000000000000000000000900463ffffffff168063058503d6146100d55780630aa050aa146101425780630ae6049d146101ab5780630dd0f5061461023b5780631922ff39146102e15780633563015f146103245780633d18b9121461034f578063442890d51461037a5780634d853ee5146103d1578063672d7a0d14610428578063cc0bbc711461046b578063cf57f18714610496578063e6ef5bb6146104ed578063fcddd05614610518575b600080fd5b3480156100e157600080fd5b5061010060048036038101908080359060200190929190505050610522565b604051808273ffffffffffffffffffffffffffffffffffffffff1673ffffffffffffffffffffffffffffffffffffffff16815260200191505060405180910390f35b34801561014e57600080fd5b506101a9600480360381019080803590602001908201803590602001908080601f01602080910402602001604051908101604052809392919081815260200183838082843782019150505050505091929192905050506105c1565b005b3480156101b757600080fd5b506101c061061e565b6040518080602001828103825283818151815260200191508051906020019080838360005b838110156102005780820151818401526020810190506101e5565b50505050905090810190601f16801561022d5780820380516001836020036101000a031916815260200191505b509250505060405180910390f35b34801561024757600080fd5b50610266600480360381019080803590602001909291905050506106c0565b6040518080602001828103825283818151815260200191508051906020019080838360005b838110156102a657808201518184015260208101905061028b565b50505050905090810190601f1680156102d35780820380516001836020036101000a031916815260200191505b509250505060405180910390f35b3480156102ed57600080fd5b50610322600480360381019080803573ffffffffffffffffffffffffffffffffffffffff169060200190929190505050610836565b005b34801561033057600080fd5b50610339610aa7565b6040518082815260200191505060405180910390f35b34801561035b57600080fd5b50610364610b0d565b6040518082815260200191505060405180910390f35b34801561038657600080fd5b5061038f610b17565b604051808273ffffffffffffffffffffffffffffffffffffffff1673ffffffffffffffffffffffffffffffffffffffff16815260200191505060405180910390f35b3480156103dd57600080fd5b506103e6610b41565b604051808273ffffffffffffffffffffffffffffffffffffffff1673ffffffffffffffffffffffffffffffffffffffff16815260200191505060405180910390f35b34801561043457600080fd5b50610469600480360381019080803573ffffffffffffffffffffffffffffffffffffffff169060200190929190505050610b66565b005b34801561047757600080fd5b50610480610df2565b6040518082815260200191505060405180910390f35b3480156104a257600080fd5b506104ab610e5b565b604051808273ffffffffffffffffffffffffffffffffffffffff1673ffffffffffffffffffffffffffffffffffffffff16815260200191505060405180910390f35b3480156104f957600080fd5b50610502610efa565b6040518082815260200191505060405180910390f35b610520610f04565b005b6000600260009054906101000a900473ffffffffffffffffffffffffffffffffffffffff1673ffffffffffffffffffffffffffffffffffffffff163373ffffffffffffffffffffffffffffffffffffffff1614151561058057600080fd5b60048281548110151561058f57fe5b9060005260206000200160009054906101000a900473ffffffffffffffffffffffffffffffffffffffff169050919050565b600033905081600760003373ffffffffffffffffffffffffffffffffffffffff1673ffffffffffffffffffffffffffffffffffffffff1681526020019081526020016000209080519060200190610619929190610f16565b505050565b606060018054600181600116156101000203166002900480601f0160208091040260200160405190810160405280929190818152602001828054600181600116156101000203166002900480156106b65780601f1061068b576101008083540402835291602001916106b6565b820191906000526020600020905b81548152906001019060200180831161069957829003601f168201915b5050505050905090565b6060600260009054906101000a900473ffffffffffffffffffffffffffffffffffffffff1673ffffffffffffffffffffffffffffffffffffffff163373ffffffffffffffffffffffffffffffffffffffff1614151561071e57600080fd5b6007600060048481548110151561073157fe5b9060005260206000200160009054906101000a900473ffffffffffffffffffffffffffffffffffffffff1673ffffffffffffffffffffffffffffffffffffffff1673ffffffffffffffffffffffffffffffffffffffff1681526020019081526020016000208054600181600116156101000203166002900480601f01602080910402602001604051908101604052809291908181526020018280546001816001161561010002031660029004801561082a5780601f106107ff5761010080835404028352916020019161082a565b820191906000526020600020905b81548152906001019060200180831161080d57829003601f168201915b50505050509050919050565b6000806000600260009054906101000a900473ffffffffffffffffffffffffffffffffffffffff1673ffffffffffffffffffffffffffffffffffffffff163373ffffffffffffffffffffffffffffffffffffffff1614151561089757600080fd5b8391506001600860008673ffffffffffffffffffffffffffffffffffffffff1673ffffffffffffffffffffffffffffffffffffffff168152602001908152602001600020540390506012600a54111561092857600092506000809054906101000a900473ffffffffffffffffffffffffffffffffffffffff1673ffffffffffffffffffffffffffffffffffffffff16ff5b5b60008111801561093b575062030d405a115b15610a57576001600a540160020a60035481151561095557fe5b0492508173ffffffffffffffffffffffffffffffffffffffff166108fc849081150290604051600060405180830381858888f1935050505015801561099e573d6000803e3d6000fd5b50600660008373ffffffffffffffffffffffffffffffffffffffff1673ffffffffffffffffffffffffffffffffffffffff16815260200190815260200160002060009054906101000a900473ffffffffffffffffffffffffffffffffffffffff1691506001600860008473ffffffffffffffffffffffffffffffffffffffff1673ffffffffffffffffffffffffffffffffffffffff168152602001908152602001600020540390506001600a5401600a81905550610929565b806009819055506001811415610aa1576000809054906101000a900473ffffffffffffffffffffffffffffffffffffffff1673ffffffffffffffffffffffffffffffffffffffff16ff5b50505050565b6000600260009054906101000a900473ffffffffffffffffffffffffffffffffffffffff1673ffffffffffffffffffffffffffffffffffffffff163373ffffffffffffffffffffffffffffffffffffffff16141515610b0557600080fd5b600954905090565b6000600354905090565b6000600260009054906101000a900473ffffffffffffffffffffffffffffffffffffffff16905090565b6000809054906101000a900473ffffffffffffffffffffffffffffffffffffffff1681565b600060043390806001815401808255809150509060018203906000526020600020016000909192909190916101000a81548173ffffffffffffffffffffffffffffffffffffffff021916908373ffffffffffffffffffffffffffffffffffffffff1602179055505081600660003373ffffffffffffffffffffffffffffffffffffffff1673ffffffffffffffffffffffffffffffffffffffff16815260200190815260200160002060006101000a81548173ffffffffffffffffffffffffffffffffffffffff021916908373ffffffffffffffffffffffffffffffffffffffff160217905550600560008373ffffffffffffffffffffffffffffffffffffffff1673ffffffffffffffffffffffffffffffffffffffff1681526020019081526020016000209050803390806001815401808255809150509060018203906000526020600020016000909192909190916101000a81548173ffffffffffffffffffffffffffffffffffffffff021916908373ffffffffffffffffffffffffffffffffffffffff1602179055505080600560008473ffffffffffffffffffffffffffffffffffffffff1673ffffffffffffffffffffffffffffffffffffffff168152602001908152602001600020908054610d40929190610f96565b506020604051908101604052806000815250600760003373ffffffffffffffffffffffffffffffffffffffff1673ffffffffffffffffffffffffffffffffffffffff1681526020019081526020016000209080519060200190610da4929190610f16565b50600480549050600860003373ffffffffffffffffffffffffffffffffffffffff1673ffffffffffffffffffffffffffffffffffffffff168152602001908152602001600020819055505050565b6000600260009054906101000a900473ffffffffffffffffffffffffffffffffffffffff1673ffffffffffffffffffffffffffffffffffffffff163373ffffffffffffffffffffffffffffffffffffffff16141515610e5057600080fd5b600480549050905090565b6000600260009054906101000a900473ffffffffffffffffffffffffffffffffffffffff1673ffffffffffffffffffffffffffffffffffffffff163373ffffffffffffffffffffffffffffffffffffffff16141515610eb957600080fd5b6004600954815481101515610eca57fe5b9060005260206000200160009054906101000a900473ffffffffffffffffffffffffffffffffffffffff16905090565b6000600a54905090565b34600360008282540192505081905550565b828054600181600116156101000203166002900490600052602060002090601f016020900481019282601f10610f5757805160ff1916838001178555610f85565b82800160010185558215610f85579182015b82811115610f84578251825591602001919060010190610f69565b5b509050610f929190610fe8565b5090565b828054828255906000526020600020908101928215610fd75760005260206000209182015b82811115610fd6578254825591600101919060010190610fbb565b5b509050610fe4919061100d565b5090565b61100a91905b80821115611006576000816000905550600101610fee565b5090565b90565b61104d91905b8082111561104957600081816101000a81549073ffffffffffffffffffffffffffffffffffffffff021916905550600101611013565b5090565b905600a165627a7a72305820b1e68dd921a10ecea82581a75be739c3bd3859f53a53976912d18fed22dba7a70029",
  "source": "pragma solidity ^0.4.24;\n\n\n// Public vs private?\n// How to check if not in map? Run out of gas, yikes?\n// Putting down money in constructor\n// Putting down money in payin\n\ncontract ReferralTree {\n\n\taddress public founder = 0xca35b7d915458ef540ade6068dfe2f44e8fa733c;\n\n\t// The question link the user asks\n\tstring questionLink;\n\taddress ownerAddr;\n\tuint256 reward;\n\n\n\t// Book keeping for referral tree\n\n\t// Address List\n\taddress[] addressArray;\n\t// Forward map\n\tmapping (address => address[]) forwardMap;\n\t// Backward map\n\tmapping (address => address) backwardMap;\n\t// Answer mapping\n\tmapping (address => string) answerMap;\n\n\t//Save mapping (used for checkpointing)\n\tmapping (address => uint256) addrToIndexMap;\n\n\t// Used for payment (with checkpointing)\n\tuint256 nextPayeeIndex;\n\tuint256 payedOutNodes;\n\n\n    // Constructor for tree\n\tconstructor (string _questionLink) payable public {\n        questionLink = _questionLink;\n\t\townerAddr = msg.sender;\n\t\treward = msg.value;\n\t\tbackwardMap[msg.sender] = 0;\n\t\tanswerMap[msg.sender] = \"\";\n\t\taddressArray.push(msg.sender);\n\t\taddrToIndexMap[msg.sender] = addressArray.length;\n    }\n\n\n\t// referral code is parent address also\n\tfunction registerNode(address referralCodeAlsoParentAddr) {\n\t\taddressArray.push(msg.sender);\n\t\tbackwardMap[msg.sender] = referralCodeAlsoParentAddr;\n\n\t\t// Adding new node into parent's children\n\t\taddress[] temp = forwardMap[referralCodeAlsoParentAddr];\n\t\ttemp.push(msg.sender);\n\t\tforwardMap[referralCodeAlsoParentAddr] = temp;\n\n\t\tanswerMap[msg.sender] = \"\";\n\t\taddrToIndexMap[msg.sender] = addressArray.length;\n\t}\n\n    // Allows anyone to add to pool\n    function payIn() payable public {\n        reward += msg.value;\n    }\n\n    // Getting for reward\n    function getReward() public view returns (uint) {\n        return reward;\n    }\n\n\t// Allows a node to attempt an Answer\n\tfunction attemptAnswer(string attempt) public {\n\t\t// Check later\n\t\taddress send = msg.sender;\n// \t\trequire( bytes(answerMap[msg.sender]).length == 0);\n\t\tanswerMap[msg.sender] = attempt;\n\t}\n\n\t// Modifier to restrict access\n\tmodifier onlyCreator() {\n        require(msg.sender == ownerAddr); // If it is incorrect here, it reverts.\n        _;                              // Otherwise, it continues.\n    }\n\n\t// Getter for answerMap's keys.\n\tfunction viewAnswerMapAddress(uint256 index) onlyCreator view returns (address){\n\t\treturn addressArray[index];\n\t}\n\n\t// Getter for answerMap's values.\n\tfunction viewAnswerMapAnswer(uint256 index) onlyCreator view returns (string){\n\t\treturn answerMap[addressArray[index]];\n\t}\n\n    // Getter for total nodes\n    function viewNumTotalNodes() onlyCreator view returns (uint256){\n        return addressArray.length;\n    }\n\n    // Getting for number of Nodes payed out (checkpointed payment)\n    function getNumNodesPayed() public view returns (uint256){\n        return payedOutNodes;\n    }\n\n    // Getter for questionLink\n    function getQuestionLink() public view returns (string){\n        return questionLink;\n    }\n\n    // Getter for visualizing tree\n    // function viewForward\n\n    // Returns index at which we left off payment\n    function getNextPayeeAddress() onlyCreator view returns (address) {\n        return addressArray[nextPayeeIndex];\n    }\n\n    function getContractOwner() public view returns (address){\n        return ownerAddr;\n    }\n\n    function getNextPayeeIndex() onlyCreator view returns (uint256){\n        return nextPayeeIndex;\n    }\n\n\n\tfunction payOut(address addr) onlyCreator {\n\t    uint256 toPayAmount;\n\t\taddress toPayAddr = addr;\n\t\tuint256 i = addrToIndexMap[addr] - 1;\n\n\n\t\t// Determining payout (limit testing)\n\t\tif (payedOutNodes > 18){\n\t\t    toPayAmount = 0;\n\t\t    selfdestruct(founder);\n\t\t}\n\t\telse{\n\n\n\t\t    while (i > 0 && gasleft() > 200000) {\n\t\t        toPayAmount = (reward/ (2**(payedOutNodes + 1)));\n\t\t\t    toPayAddr.transfer(toPayAmount);\n\n\t\t\t    toPayAddr = backwardMap[toPayAddr];\n\t\t\t    i = addrToIndexMap[toPayAddr] - 1;\n\t\t\t    payedOutNodes = payedOutNodes + 1;\n\t\t    }\n\t\t        // Use remaining gas to save checkpoint\n\t\t        nextPayeeIndex = i;\n                if (i == 1){\n                   selfdestruct(founder);\n                }\n\t\t}\n\n\n\n\n\t}\n}\n",
  "sourcePath": "/Users/mattfeng/crypto-query-incentive-network/truffled_src/contracts/ReferralTree.sol",
  "compiler": {
    "name": "solc",
    "version": "0.4.24+commit.e67f0147.Emscripten.clang"
  },
  "schemaVersion": "2.0.0",
  "updatedAt": "2018-06-02T21:58:29.147Z"
}